{
    "_format": "hh-sol-artifact-1",
    "contractName": "WETH9",
    "sourceName": "contracts/WETH9.sol",
    "abi": [
        {
            "anonymous": false,
            "inputs": [
                {
                    "indexed": true,
                    "internalType": "address",
                    "name": "owner",
                    "type": "address"
                },
                {
                    "indexed": true,
                    "internalType": "address",
                    "name": "spender",
                    "type": "address"
                },
                {
                    "indexed": false,
                    "internalType": "uint256",
                    "name": "value",
                    "type": "uint256"
                }
            ],
            "name": "Approval",
            "type": "event"
        },
        {
            "anonymous": false,
            "inputs": [
                {
                    "indexed": true,
                    "internalType": "address",
                    "name": "sender",
                    "type": "address"
                },
                {
                    "indexed": false,
                    "internalType": "uint256",
                    "name": "value",
                    "type": "uint256"
                }
            ],
            "name": "Deposit",
            "type": "event"
        },
        {
            "anonymous": false,
            "inputs": [
                {
                    "indexed": true,
                    "internalType": "address",
                    "name": "from",
                    "type": "address"
                },
                {
                    "indexed": true,
                    "internalType": "address",
                    "name": "to",
                    "type": "address"
                },
                {
                    "indexed": false,
                    "internalType": "uint256",
                    "name": "value",
                    "type": "uint256"
                }
            ],
            "name": "Transfer",
            "type": "event"
        },
        {
            "anonymous": false,
            "inputs": [
                {
                    "indexed": true,
                    "internalType": "address",
                    "name": "recipient",
                    "type": "address"
                },
                {
                    "indexed": false,
                    "internalType": "uint256",
                    "name": "value",
                    "type": "uint256"
                }
            ],
            "name": "Withdrawal",
            "type": "event"
        },
        {
            "inputs": [
                {
                    "internalType": "address",
                    "name": "owner",
                    "type": "address"
                },
                {
                    "internalType": "address",
                    "name": "spender",
                    "type": "address"
                }
            ],
            "name": "allowance",
            "outputs": [
                {
                    "internalType": "uint256",
                    "name": "",
                    "type": "uint256"
                }
            ],
            "stateMutability": "view",
            "type": "function"
        },
        {
            "inputs": [
                {
                    "internalType": "address",
                    "name": "spender",
                    "type": "address"
                },
                {
                    "internalType": "uint256",
                    "name": "value",
                    "type": "uint256"
                }
            ],
            "name": "approve",
            "outputs": [
                {
                    "internalType": "bool",
                    "name": "",
                    "type": "bool"
                }
            ],
            "stateMutability": "nonpayable",
            "type": "function"
        },
        {
            "inputs": [
                {
                    "internalType": "address",
                    "name": "who",
                    "type": "address"
                }
            ],
            "name": "balanceOf",
            "outputs": [
                {
                    "internalType": "uint256",
                    "name": "",
                    "type": "uint256"
                }
            ],
            "stateMutability": "view",
            "type": "function"
        },
        {
            "inputs": [],
            "name": "decimals",
            "outputs": [
                {
                    "internalType": "uint8",
                    "name": "",
                    "type": "uint8"
                }
            ],
            "stateMutability": "view",
            "type": "function"
        },
        {
            "inputs": [],
            "name": "deposit",
            "outputs": [],
            "stateMutability": "payable",
            "type": "function"
        },
        {
            "inputs": [],
            "name": "name",
            "outputs": [
                {
                    "internalType": "string",
                    "name": "",
                    "type": "string"
                }
            ],
            "stateMutability": "view",
            "type": "function"
        },
        {
            "inputs": [],
            "name": "symbol",
            "outputs": [
                {
                    "internalType": "string",
                    "name": "",
                    "type": "string"
                }
            ],
            "stateMutability": "view",
            "type": "function"
        },
        {
            "inputs": [],
            "name": "totalSupply",
            "outputs": [
                {
                    "internalType": "uint256",
                    "name": "",
                    "type": "uint256"
                }
            ],
            "stateMutability": "view",
            "type": "function"
        },
        {
            "inputs": [
                {
                    "internalType": "address",
                    "name": "to",
                    "type": "address"
                },
                {
                    "internalType": "uint256",
                    "name": "value",
                    "type": "uint256"
                }
            ],
            "name": "transfer",
            "outputs": [
                {
                    "internalType": "bool",
                    "name": "",
                    "type": "bool"
                }
            ],
            "stateMutability": "nonpayable",
            "type": "function"
        },
        {
            "inputs": [
                {
                    "internalType": "address",
                    "name": "from",
                    "type": "address"
                },
                {
                    "internalType": "address",
                    "name": "to",
                    "type": "address"
                },
                {
                    "internalType": "uint256",
                    "name": "value",
                    "type": "uint256"
                }
            ],
            "name": "transferFrom",
            "outputs": [
                {
                    "internalType": "bool",
                    "name": "",
                    "type": "bool"
                }
            ],
            "stateMutability": "nonpayable",
            "type": "function"
        },
        {
            "inputs": [
                {
                    "internalType": "uint256",
                    "name": "value",
                    "type": "uint256"
                }
            ],
            "name": "withdraw",
            "outputs": [],
            "stateMutability": "nonpayable",
            "type": "function"
        }
    ],
    "bytecode": "0x608060405234801561001057600080fd5b50611188806100206000396000f3fe60806040526004361061009c5760003560e01c8063313ce56711610064578063313ce5671461019a57806370a08231146101c557806395d89b4114610202578063a9059cbb1461022d578063d0e30db01461026a578063dd62ed3e146102745761009c565b806306fdde03146100a1578063095ea7b3146100cc57806318160ddd1461010957806323b872dd146101345780632e1a7d4d14610171575b600080fd5b3480156100ad57600080fd5b506100b66102b1565b6040516100c39190610c90565b60405180910390f35b3480156100d857600080fd5b506100f360048036038101906100ee9190610d4b565b6102ea565b6040516101009190610da6565b60405180910390f35b34801561011557600080fd5b5061011e6103dc565b60405161012b9190610dd0565b60405180910390f35b34801561014057600080fd5b5061015b60048036038101906101569190610deb565b6103e6565b6040516101689190610da6565b60405180910390f35b34801561017d57600080fd5b5061019860048036038101906101939190610e3e565b6106d5565b005b3480156101a657600080fd5b506101af6108a9565b6040516101bc9190610e87565b60405180910390f35b3480156101d157600080fd5b506101ec60048036038101906101e79190610ea2565b6108ae565b6040516101f99190610dd0565b60405180910390f35b34801561020e57600080fd5b506102176108f6565b6040516102249190610c90565b60405180910390f35b34801561023957600080fd5b50610254600480360381019061024f9190610d4b565b61092f565b6040516102619190610da6565b60405180910390f35b610272610acb565b005b34801561028057600080fd5b5061029b60048036038101906102969190610ecf565b610b70565b6040516102a89190610dd0565b60405180910390f35b6040518060400160405280600d81526020017f577261707065642045746865720000000000000000000000000000000000000081525081565b600081600160003373ffffffffffffffffffffffffffffffffffffffff1673ffffffffffffffffffffffffffffffffffffffff16815260200190815260200160002060008573ffffffffffffffffffffffffffffffffffffffff1673ffffffffffffffffffffffffffffffffffffffff168152602001908152602001600020819055508273ffffffffffffffffffffffffffffffffffffffff163373ffffffffffffffffffffffffffffffffffffffff167f8c5be1e5ebec7d5bd14f71427d1e84f3dd0314c0f7b2291e5b200ac8c7c3b925846040516103ca9190610dd0565b60405180910390a36001905092915050565b6000600254905090565b60008060008573ffffffffffffffffffffffffffffffffffffffff1673ffffffffffffffffffffffffffffffffffffffff16815260200190815260200160002054821115610469576040517f08c379a000000000000000000000000000000000000000000000000000000000815260040161046090610f5b565b60405180910390fd5b600160008573ffffffffffffffffffffffffffffffffffffffff1673ffffffffffffffffffffffffffffffffffffffff16815260200190815260200160002060003373ffffffffffffffffffffffffffffffffffffffff1673ffffffffffffffffffffffffffffffffffffffff16815260200190815260200160002054821115610528576040517f08c379a000000000000000000000000000000000000000000000000000000000815260040161051f90610fc7565b60405180910390fd5b816000808673ffffffffffffffffffffffffffffffffffffffff1673ffffffffffffffffffffffffffffffffffffffff16815260200190815260200160002060008282546105769190611016565b92505081905550816000808573ffffffffffffffffffffffffffffffffffffffff1673ffffffffffffffffffffffffffffffffffffffff16815260200190815260200160002060008282546105cb919061104a565b9250508190555081600160008673ffffffffffffffffffffffffffffffffffffffff1673ffffffffffffffffffffffffffffffffffffffff16815260200190815260200160002060003373ffffffffffffffffffffffffffffffffffffffff1673ffffffffffffffffffffffffffffffffffffffff168152602001908152602001600020600082825461065e9190611016565b925050819055508273ffffffffffffffffffffffffffffffffffffffff168473ffffffffffffffffffffffffffffffffffffffff167fddf252ad1be2c89b69c2b068fc378daa952ba7f163c4a11628f55a4df523b3ef846040516106c29190610dd0565b60405180910390a3600190509392505050565b806000803373ffffffffffffffffffffffffffffffffffffffff1673ffffffffffffffffffffffffffffffffffffffff168152602001908152602001600020541015610756576040517f08c379a000000000000000000000000000000000000000000000000000000000815260040161074d90610f5b565b60405180910390fd5b806000803373ffffffffffffffffffffffffffffffffffffffff1673ffffffffffffffffffffffffffffffffffffffff16815260200190815260200160002060008282546107a49190611016565b9250508190555060003373ffffffffffffffffffffffffffffffffffffffff16826040516107d1906110d1565b60006040518083038185875af1925050503d806000811461080e576040519150601f19603f3d011682016040523d82523d6000602084013e610813565b606091505b5050905080610857576040517f08c379a000000000000000000000000000000000000000000000000000000000815260040161084e90611132565b60405180910390fd5b3373ffffffffffffffffffffffffffffffffffffffff167f7fcf532c15f0a6db0bd6d0e038bea71d30d808c7d98cb3bf7268a95bf5081b658360405161089d9190610dd0565b60405180910390a25050565b601281565b60008060008373ffffffffffffffffffffffffffffffffffffffff1673ffffffffffffffffffffffffffffffffffffffff168152602001908152602001600020549050919050565b6040518060400160405280600481526020017f574554480000000000000000000000000000000000000000000000000000000081525081565b6000816000803373ffffffffffffffffffffffffffffffffffffffff1673ffffffffffffffffffffffffffffffffffffffff1681526020019081526020016000205410156109b2576040517f08c379a00000000000000000000000000000000000000000000000000000000081526004016109a990610f5b565b60405180910390fd5b816000803373ffffffffffffffffffffffffffffffffffffffff1673ffffffffffffffffffffffffffffffffffffffff1681526020019081526020016000206000828254610a009190611016565b92505081905550816000808573ffffffffffffffffffffffffffffffffffffffff1673ffffffffffffffffffffffffffffffffffffffff1681526020019081526020016000206000828254610a55919061104a565b925050819055508273ffffffffffffffffffffffffffffffffffffffff163373ffffffffffffffffffffffffffffffffffffffff167fddf252ad1be2c89b69c2b068fc378daa952ba7f163c4a11628f55a4df523b3ef84604051610ab99190610dd0565b60405180910390a36001905092915050565b346000803373ffffffffffffffffffffffffffffffffffffffff1673ffffffffffffffffffffffffffffffffffffffff1681526020019081526020016000206000828254610b19919061104a565b925050819055503373ffffffffffffffffffffffffffffffffffffffff167fe1fffcc4923d04b559f4d29a8bfc6cda04eb5b0d3c460751c2402c5c5cc9109c34604051610b669190610dd0565b60405180910390a2565b6000600160008473ffffffffffffffffffffffffffffffffffffffff1673ffffffffffffffffffffffffffffffffffffffff16815260200190815260200160002060008373ffffffffffffffffffffffffffffffffffffffff1673ffffffffffffffffffffffffffffffffffffffff16815260200190815260200160002054905092915050565b600081519050919050565b600082825260208201905092915050565b60005b83811015610c31578082015181840152602081019050610c16565b83811115610c40576000848401525b50505050565b6000601f19601f8301169050919050565b6000610c6282610bf7565b610c6c8185610c02565b9350610c7c818560208601610c13565b610c8581610c46565b840191505092915050565b60006020820190508181036000830152610caa8184610c57565b905092915050565b600080fd5b600073ffffffffffffffffffffffffffffffffffffffff82169050919050565b6000610ce282610cb7565b9050919050565b610cf281610cd7565b8114610cfd57600080fd5b50565b600081359050610d0f81610ce9565b92915050565b6000819050919050565b610d2881610d15565b8114610d3357600080fd5b50565b600081359050610d4581610d1f565b92915050565b60008060408385031215610d6257610d61610cb2565b5b6000610d7085828601610d00565b9250506020610d8185828601610d36565b9150509250929050565b60008115159050919050565b610da081610d8b565b82525050565b6000602082019050610dbb6000830184610d97565b92915050565b610dca81610d15565b82525050565b6000602082019050610de56000830184610dc1565b92915050565b600080600060608486031215610e0457610e03610cb2565b5b6000610e1286828701610d00565b9350506020610e2386828701610d00565b9250506040610e3486828701610d36565b9150509250925092565b600060208284031215610e5457610e53610cb2565b5b6000610e6284828501610d36565b91505092915050565b600060ff82169050919050565b610e8181610e6b565b82525050565b6000602082019050610e9c6000830184610e78565b92915050565b600060208284031215610eb857610eb7610cb2565b5b6000610ec684828501610d00565b91505092915050565b60008060408385031215610ee657610ee5610cb2565b5b6000610ef485828601610d00565b9250506020610f0585828601610d00565b9150509250929050565b7f496e73756666696369656e742062616c616e6365000000000000000000000000600082015250565b6000610f45601483610c02565b9150610f5082610f0f565b602082019050919050565b60006020820190508181036000830152610f7481610f38565b9050919050565b7f496e73756666696369656e7420616c6c6f77616e636500000000000000000000600082015250565b6000610fb1601683610c02565b9150610fbc82610f7b565b602082019050919050565b60006020820190508181036000830152610fe081610fa4565b9050919050565b7f4e487b7100000000000000000000000000000000000000000000000000000000600052601160045260246000fd5b600061102182610d15565b915061102c83610d15565b92508282101561103f5761103e610fe7565b5b828203905092915050565b600061105582610d15565b915061106083610d15565b9250827fffffffffffffffffffffffffffffffffffffffffffffffffffffffffffffffff0382111561109557611094610fe7565b5b828201905092915050565b600081905092915050565b50565b60006110bb6000836110a0565b91506110c6826110ab565b600082019050919050565b60006110dc826110ae565b9150819050919050565b7f4661696c656420746f2073656e64204574686572000000000000000000000000600082015250565b600061111c601483610c02565b9150611127826110e6565b602082019050919050565b6000602082019050818103600083015261114b8161110f565b905091905056fea2646970667358221220f5d2184279fb8087eb8ce4e62573587efd198c89841415cf99b54b409874186464736f6c63430008090033",
    "linkReferences": {},
    "deployedLinkReferences": {}
}